:0C007000D2AFD2A812004A24FF928822CE
:0C007C00D2AFD2AA12004A24FF928A22BE
:10000600D2AFD2A9D28C12004A4289AB0BAA0CA954
:100016000D12004AF58CAB0EAA0FA91012004AF574
:020026008A222C
:10002800D2AFD2ABD28E12004A4289AB14AA15A91C
:100038001612004AF58DAB17AA18A91912004AF52D
:020048008B2209
:0D0063007B007A007900120070C29080FED0
:0300030002009464
:0A00940020B204D29080F9C290322D
:0300000002008873
:0C008800787FE4F6D8FD75811902006352
:10004A00BB010689828A83E0225002E722BBFE02B4
:09005A00E32289828A83E49322E7
:00000001FF
