:1003290000000000000000000000000000000000C4
:10030500202008003F0006005B004F0066006D00DE
:100315007D0007007F006F0077007C0039005E00DC
:03032500790071EB
:1002A7007F047E00C293C292C291C290209702E45B
:1002B700FF2096047E007F012095047E007F0220A8
:0E02C70094047E007F03D293D292D291D29003
:0102D5002206
:1002D6007F047E00C297C296C295C294209302E420
:1002E600FF2092047E007F012091047E007F022081
:0E02F60090047E007F03D297D296D295D294C8
:0103040022D6
:10025300EE7050EFB40800504A900263F8282873F8
:1002630002027B02027F02028302028702028B02E6
:1002730002920202990202A0D2A4800ED2A480119B
:10028300D2A48014D2A48017C2A4D2A3D2A222C221
:10029300A4D2A3C2A222C2A4C2A3D2A222C2A4C233
:0402A300A3C2A2222E
:0B033900EF1FAC0670011E4C70F62296
:1000F90078287C007D007BFF7A0379297E007F10B8
:080109001200D3E4F538F539CA
:10011100753A00753B04753C00753D047F707E1790
:100121001203391202A78E3A8F3B1202D68E3C8FF0
:100131003D7F707E17120339C3E53B9404E53A9481
:10014100005043C3E53D9404E53C94005038E53943
:100151009407E538648094804005E4F538F539E585
:100161003B75F008A42408F8E53D25E028F8E6FEF3
:1001710008E6FF0539E539700205381425E0242821
:10018100F8A60608A607E4F53EF53FC3E53F940847
:10019100E53E94004003020111AF3FAE3E1202530F
:1001A1007F647E00120339E53F25E02428F808E644
:1001B100F5807F647E00120339E4F580053FE53F59
:0601C10070C9053E80C577
:030000000201C733
:0C01C700787FE4F6D8FD75813F02020E3F
:10000300E709F608DFFA8046E709F208DFFA803EDF
:1000130088828C83E709F0A3DFFA8032E309F608CC
:10002300DFFA8078E309F208DFFA807088828C8334
:10003300E309F0A3DFFA806489828A83E0A3F608E8
:10004300DFFA805889828A83E0A3F208DFFA804CC2
:1000530080D280FA80C680D4806980F28033801099
:1000630080A680EA809A80A880DA80E280CA803302
:1000730089828A83ECFAE493A3C8C582C8CCC5837A
:10008300CCF0A3C8C582C8CCC583CCDFE9DEE7804A
:100093000D89828A83E493A3F608DFF9ECFAA9F0C9
:1000A300EDFB2289828A83ECFAE0A3C8C582C8CC1F
:1000B300C583CCF0A3C8C582C8CCC583CCDFEADE38
:1000C300E880DB89828A83E493A3F208DFF980CC9A
:1000D30088F0EF60010E4E60C388F0ED2402B40493
:1000E3000050B9F582EB2402B4040050AF2323453A
:0600F3008223900053730C
:1001D3000200F9E493A3F8E493A34003F68001F249
:1001E30008DFF48029E493A3F85407240CC8C3332D
:1001F300C4540F4420C8834004F456800146F6DFFC
:10020300E4800B0102040810204080900305E47E83
:10021300019360BCA3FF543F30E509541FFEE493F0
:10022300A360010ECF54C025E060A840B8E493A3B7
:10023300FAE493A3F8E493A3C8C582C8CAC583CAE2
:10024300F0A3C8C582C8CAC583CADFE9DEE780BE9A
:0103280000D4
:00000001FF
