:1001970000007E10101E000000007C545474000004
:1001A70000007909097F000000007E5050500000D0
:1001B700003C0202023C0000003C42424242000076
:1001C70000007E182442000000007909097F000022
:1001D700003C424242423C00003C0202023C00001A
:04026F007F017E008D
:0B027300EF1FAC0670011E4C70F6225D
:10025D007C007D6E120126EF1FAC0670011E4C70E6
:02026D00F62277
:02022F00AD0719
:10023100E4FBFAEDC4131313540124FF92B4ED252A
:10024100E0FDC2B612026FD2B60BBB00010AEB642D
:0B025100084A70DFC2B512026FD2B580
:01025C00227F
:060138008B5A8A5B895C12
:10013E00755D00755E64E55E155EAE5D7002155D03
:03014E004E6045BB
:10015100E4F55FF560C3E5609408E55F940050E362
:10016100AF607480A807088002C313D8FCF4F5803F
:10017100AB5AAA5BA95C856082855F831200F9FF97
:1001810012022F12026FE4FF12022F0560E5607068
:05019100C4055F80C001
:010196002246
:1001E70078087C007D007BFF7A0179977E007F503D
:0301F7001200D320
:1001FA00E4F558F5597F647E0012025DE55975F001
:10020A0008A42408F9E4FAFB1201387F647E00127C
:10021A00025D0559E55970020558C3940AE55894D8
:05022A000040D280CB72
:0300000002027E7B
:0C027E00787FE4F6D8FD7581600201E78E
:10000300E709F608DFFA8046E709F208DFFA803EDF
:1000130088828C83E709F0A3DFFA8032E309F608CC
:10002300DFFA8078E309F208DFFA807088828C8334
:10003300E309F0A3DFFA806489828A83E0A3F608E8
:10004300DFFA805889828A83E0A3F208DFFA804CC2
:1000530080D280FA80C680D4806980F28033801099
:1000630080A680EA809A80A880DA80E280CA803302
:1000730089828A83ECFAE493A3C8C582C8CCC5837A
:10008300CCF0A3C8C582C8CCC583CCDFE9DEE7804A
:100093000D89828A83E493A3F608DFF9ECFAA9F0C9
:1000A300EDFB2289828A83ECFAE0A3C8C582C8CC1F
:1000B300C583CCF0A3C8C582C8CCC583CCDFEADE38
:1000C300E880DB89828A83E493A3F208DFF980CC9A
:1000D30088F0EF60010E4E60C388F0ED2402B40493
:1000E3000050B9F582EB2402B4040050AF2323453A
:0600F3008223900053730C
:1000F900BB010CE58229F582E5833AF583E02250BC
:1001090006E92582F8E622BBFE06E92582F8E22205
:0D011900E58229F582E5833AF583E493221F
:10012600EF8DF0A4A8F0CF8CF0A428CE8DF0A42EED
:02013600FE22A7
:00000001FF
