:03030A00012701C7
:10018B00EF6003752701E527602E30B10930B0060B
:10019B0030B20320B3227F0A7E00120321E4F5273D
:1001AB0020B1037F012220B0037F022220B2037F04
:1001BB00032220B3127F042230B10C30B00930B2CD
:0901CB000630B3037527017F0023
:0101D4002208
:10030D0011083F065B4F666D7D077F6F777C395E09
:03031D00797100F3
:10012700EFD39400405DEF94095058EF14B40800E2
:10013700505190014775F003A4C58325F0C583731B
:1001470002015F02016302016702016B02016F0294
:10015700017602017D020184D2A4800ED2A480110F
:10016700D2A48014D2A48017C2A4D2A3D2A222C23E
:10017700A4D2A3C2A222C2A4C2A3D2A222C2A4C250
:04018700A3C2A2224B
:0D0333008F807F647E00120340E4F580227D
:040214008D208B218D
:100218008F25E4F526E525C395205027AF25120143
:1002280027AB22AA23A924AF2605268F827583002F
:100238001201D52408F8E6FF120333E5212525F538
:030248002580D23C
:01024B002290
:09035500D2A0D2A1C2A0C2A122D3
:07035E00C2A0D2A1D2A0222F
:0A034B00EF24FF92A0D2A1C2A1226C
:1002EF00E4FFD2A0D2A130A00A0FEFD3946440F65E
:0A02FF0012035EA2A0E433FFC2A1C7
:0103090022D1
:1002CC00E4FED2A0FDD2A130A00D7480A805088058
:1002DC0002C313D8FC4206C2A10DBD08E812034BA1
:0202EC00AF065B
:0102EE0022ED
:02027C00AD07CC
:10027E00E4FB74807E00A803088006CEA2E713CEAE
:10028E0013D8F8FFEDF582EF558224FF92A0D2A18C
:09029E00C2A10BBB08DC1202EF47
:0102A7002234
:06024C008F1F8D208B21A5
:10025200120355AF1F12027CEF60037F0122AF2011
:1002620012027CEF60037F0122AF2112027CEF6059
:09027200037F012212035E7F00EC
:01027B002260
:0602A8008F1F8D208B2149
:1002AE00120355AF1F12027CAF2012027C120355AF
:0D02BE00E51F4401FF12027CAF211202CCAB
:0102CB002210
:10000300E4F519751A0AE4FF12018B8F1BE51B60D7
:10001300F5E51B64017025AB197D017FA012024C2D
:10002300EF703CAF1A151AEF60357F647E00120340
:1000330040B2A57F647E0012034080E7E51BB40253
:100043000D7B017D017FA01202A88F198011E51B92
:10005300B4030405198008E51BB40403E4F519E5AA
:100063001975F06484E5F075F00A8485F01EE519CE
:1000730075F00A8475F00A8485F01DE51975F0643E
:1000830084F51C75220075230075241C7B017D09F2
:080093007F06120214020009AD
:0303650002000390
:0B034000EF1FAC0670011E4C70F6228F
:100321007C007D6E120202EF1FAC0670011E4C7044
:02033100F622B2
:0300000002009B60
:0C009B00787FE4F6D8FD7581270200E2B2
:1001D500BB010CE58229F582E5833AF583E02250DF
:1001E50006E92582F8E622BBFE06E92582F8E22229
:0D01F500E58229F582E5833AF583E4932243
:10020200EF8DF0A4A8F0CF8CF0A428CE8DF0A42E10
:02021200FE22CA
:1000A700020365E493A3F8E493A34003F68001F207
:1000B70008DFF48029E493A3F85407240CC8C3335A
:1000C700C4540F4420C8834004F456800146F6DF29
:1000D700E4800B010204081020408090030AE47EAC
:1000E700019360BCA3FF543F30E509541FFEE4931E
:1000F700A360010ECF54C025E060A840B8E493A3E5
:10010700FAE493A3F8E493A3C8C582C8CAC583CA0F
:10011700F0A3C8C582C8CAC583CADFE9DEE780BEC7
:0103200000DC
:00000001FF
