:100128002022080000003F0006005B004F00660028
:100138006D007D0007007F006F0077007C003900AC
:050148005E007900716A
:0B014E00EF1FAC0670011E4C70F62283
:10000300752A00752B01E52A705CE52B14B40800F2
:10001300505490002375F003A4C58325F0C5837362
:1000230002003B02003F02004302004702004B0272
:10003300005302005B020063D2A4800ED2A480129C
:10004300D2A48016D2A4801AC2A4D2A3D2A28016AC
:10005300C2A4D2A3C2A2800EC2A4C2A3D2A280060B
:10006300C2A4C2A3C2A27F647E0012014EE52B2567
:10007300E02408F808E6F5807F647E0012014E85CF
:100083000980052BE52B7002052AC39409E52A9400
:0900930000500302000902000301
:0300000002009C5F
:0C009C00787FE4F6D8FD75812B0200E3AC
:1000A800020003E493A3F8E493A34003F68001F26B
:1000B80008DFF48029E493A3F85407240CC8C33359
:1000C800C4540F4420C8834004F456800146F6DF28
:1000D800E4800B0102040810204080900128E47E8F
:1000E800019360BCA3FF543F30E509541FFEE4931D
:1000F800A360010ECF54C025E060A840B8E493A3E4
:10010800FAE493A3F8E493A3C8C582C8CAC583CA0E
:10011800F0A3C8C582C8CAC583CADFE9DEE780BEC6
:01014D0000B1
:00000001FF
