:10035C00003F065B4F666D7D077F6F777C395E795A
:01036C00711F
:03038400012D0147
:0B037900EF1FAC0670011E4C70F62256
:070343001201C3AF2D7E0083
:10034A007C007D6E120125EF1FAC0670011E4C70F9
:02035A00F62289
:0C000600D2AFD2A812010C24FF92882275
:0C036D00D2AFD2AA12010C24FF928A2207
:1002DE00D2AFD2A9D28C12010C4289AB1EAA1FA991
:1002EE002012010CF58CAB21AA22A92312010CF5C8
:0202FE008A2252
:10030000D2AFD2ABD28E12010C4289AB27AA28A958
:100310002912010CF58DAB2AAA2BA92C12010CF580
:020320008B222E
:1001C300ED6005C374079FFFEFB40800505890011A
:1001D300D8F82828730201F00201F60201FC02029A
:1001E3000502020B02021402021D020221D290C276
:1001F30091800AD290D2918004C290D291C292C2CD
:100203009322C290D2918004C290C291D292C2939F
:1002130022C290C291D292D29322C2908002D290F3
:07022300C291C292D29322A6
:1003220020B01D7F647E0012034A20B00AE52DC36F
:100332009406500C052D22E52DD394014002152D73
:010342002298
:1002B200780A7C007D007BFF7A03795C7E007F11E7
:1002C2001200E67B007A00790012000612036D121A
:0C02D2000322740B252DF8E6F58080F364
:0300030002022ACC
:10022A00C0E0C0F0C083C082C0D075D000C000C09A
:0A023A0004C005C006C00720B2157D
:10024400750800E508C3940850F3E4FDAF081203F1
:0502540043050880EEE7
:10025900D007D006D005D004D000D0D0D082D0832A
:05026900D0F0D0E032EE
:0300130002026E78
:10026E00C0E0C0F0C083C082C0D075D000C000C056
:0A027E0004C005C006C00720B31538
:10028800750900E509C3940850F37D01AF0912030D
:0502980043050980EEA2
:10029D00D007D006D005D004D000D0D0D082D083E6
:0502AD00D0F0D0E032AA
:03000000020137C3
:0C013700787FE4F6D8FD75812D02017E72
:10001600E709F608DFFA8046E709F208DFFA803ECC
:1000260088828C83E709F0A3DFFA8032E309F608B9
:10003600DFFA8078E309F208DFFA807088828C8321
:10004600E309F0A3DFFA806489828A83E0A3F608D5
:10005600DFFA805889828A83E0A3F208DFFA804CAF
:1000660080D280FA80C680D4806980F28033801086
:1000760080A680EA809A80A880DA80E280CA8033EF
:1000860089828A83ECFAE493A3C8C582C8CCC58367
:10009600CCF0A3C8C582C8CCC583CCDFE9DEE78037
:1000A6000D89828A83E493A3F608DFF9ECFAA9F0B6
:1000B600EDFB2289828A83ECFAE0A3C8C582C8CC0C
:1000C600C583CCF0A3C8C582C8CCC583CCDFEADE25
:1000D600E880DB89828A83E493A3F208DFF980CC87
:1000E60088F0EF60010E4E60C388F0ED2402B40480
:1000F6000050B9F582EB2402B4040050AF23234527
:06010600822390006673E5
:10010C00BB010689828A83E0225002E722BBFE02F1
:09011C00E32289828A83E4932224
:10012500EF8DF0A4A8F0CF8CF0A428CE8DF0A42EEE
:02013500FE22A8
:100143000202B2E493A3F8E493A34003F68001F21E
:1001530008DFF48029E493A3F85407240CC8C333BD
:10016300C4540F4420C8834004F456800146F6DF8C
:10017300E4800B0102040810204080900384E47E95
:10018300019360BCA3FF543F30E509541FFEE49381
:10019300A360010ECF54C025E060A840B8E493A348
:1001A300FAE493A3F8E493A3C8C582C8CAC583CA73
:1001B300F0A3C8C582C8CAC583CADFE9DEE780BE2B
:010387000075
:00000001FF
