:10024F00010900010800100A61626364656667684E
:08025F00696A6B6C6D6E6F7033
:0C02A200D2AFD2A81201B624FF9288222D
:0C02AE00D2AFD2AA1201B624FF928A221D
:10020B00D2AFD2A9D28C1201B64289AB3FAA40A978
:10021B00411201B6F58CAB42AA43A9441201B6F5C3
:02022B008A2225
:10022D00D2AFD2ABD28E1201B64289AB36AA37A964
:10023D00381201B6F58DAB39AA3AA93B1201B6F5C4
:02024D008B2202
:100291001201B6F598AB36AA37A9381201B64287D2
:0102A100223A
:1000EC008F2F8D308B317536007537007538317B1D
:1000FC00007A007930120291753600753700753828
:10010C0032753900753A00753B327B007A00792FD5
:08011C0012022DD2ACC2AB228D
:0802C5008F993099FDC29922C6
:10026800E4FEEE6508600C741A2EF8E6FF1202C56B
:060278000E80EFE4F50822
:01027E00225D
:03002300020124B3
:10012400C0E0C0D075D000C000C007C298E509D3B4
:1001340094094003750900AF09050974242FF8A632
:100144009974232509F8E6FF1202C5D007D000D020
:04015400D0D0E032F5
:0B02BA00EF1FAC0670011E4C70F62216
:10027F007C007D6E1201CFEF1FAC0670011E4C701B
:02028F00F62255
:100158007F047E00C293C292C291C290209702E4AB
:10016800FF2096047E007F012095047E007F0220F8
:0E01780094047E007F03D293D292D291D29053
:010186002256
:100187007F047E00C297C296C295C294209302E470
:10019700FF2092047E007F012091047E007F0220D1
:0E01A70090047E007F03D297D296D295D29418
:0101B5002227
:1000B2007F707E171202BA120158AB07AA0612010C
:1000C200878F828E837F707E171202BAEB64044A96
:1000D2006015E58264044583600DEB25E025E0248C
:0900E2000A2582F8E6FF227F00E6
:0100EB0022F2
:1001E1007B007A0079001202A27532FA7B807D5081
:0501F1007F201200EC6C
:1001F6001200B28F2EE52E60F7AF080508741A2F8D
:03020600F8A62E29
:0202090080EB88
:03000300020006F2
:10000600C0E0C0D075D000C000C006C007120268AC
:0B001600D007D006D000D0D0D0E032E0
:03000000020026D5
:0C002600787FE4F6D8FD75814402006D7F
:1001B600BB010689828A83E0225002E722BBFE0247
:0901C600E32289828A83E493227A
:1001CF00EF8DF0A4A8F0CF8CF0A428CE8DF0A42E44
:0201DF00FE22FE
:100032000201E1E493A3F8E493A34003F68001F202
:1000420008DFF48029E493A3F85407240CC8C333CF
:10005200C4540F4420C8834004F456800146F6DF9E
:10006200E4800B010204081020408090024FE47EDD
:10007200019360BCA3FF543F30E509541FFEE49393
:10008200A360010ECF54C025E060A840B8E493A35A
:10009200FAE493A3F8E493A3C8C582C8CAC583CA85
:1000A200F0A3C8C582C8CAC583CADFE9DEE780BE3D
:010267000096
:00000001FF
