:1002990020221C003F0006005B004F0066006D0035
:1002A9007D0007007F006F0077007C0039005E0049
:1002B9007900710000021A00000216000002140001
:1002C900000C08000000000000000000000000020F
:0302D9001800000A
:0C038E00D2AFD2A812000E24FF928822E9
:0C039A00D2AFD2AA12000E24FF928A22D9
:10031200D2AFD2A9D28C12000E4289AB4AAA4BA903
:100322004C12000EF58CAB4DAA4EA94F12000EF5E1
:020332008A221D
:10033400D2AFD2ABD28E12000E4289AB41AA42A9EF
:100344004312000EF58DAB44AA45A94612000EF5E2
:020354008B22FA
:10013E00EE7058EF14B40800505190015675F0034C
:10014E00A4C58325F0C5837302016E0201720201FC
:10015E007602017A02017E02018502018C02019370
:10016E00D2A4800ED2A48011D2A48014D2A480175F
:10017E00C2A4D2A3D2A222C2A4D2A3C2A222C2A439
:0C018E00C2A3D2A222C2A4C2A3C2A22219
:10037500E4FF7E0C7808E4F608DEFCE4F514F515D8
:08038500F516F517F51AF51B3A
:01038D00224D
:10019A00AE14AF157C007D0A1200278E088F09AEB7
:1001AA0014AF157C007D0A1200278C0A8D0BAE163F
:1001BA00AF177C007D0A1200278E0C8F0DAE16AF8A
:1001CA00177C007D0A1200278C0E8D0FAE1AAF1B0A
:1001DA007C007D0A1200278E108F11AE1AAF1B7C8D
:0B01EA00007D0A1200278C128D1322EA
:1001F50012019AE4FDFCC3ED9406EC6480948050F2
:1002050047ED2401FFE43CFE12013EED25E0240804
:10021500F808E625E0241CF808E6F580E4F580ED0D
:100225002402FFE43CFE12013EED25E0240AF80815
:10023500E625E0241CF808E64480F580E4F58074A2
:08024500022DFDE43CFC80AE3B
:01024D00228E
:100356007B007A00790112038E8B4A8A4B754C2CEE
:0F0366008B4D8A4E754F161203121201F580FB54
:030003000202DD19
:1002DD00C0E0C0F0C083C082C0D075D000C000C0E7
:1002ED0004C005C006C0071201F520B1FA1203754E
:1002FD00D007D006D005D004D000D0D0D082D08386
:05030D00D0F0D0E03249
:03000B0002024EA0
:10024E00C0E00519E51970020518641445187038D8
:10025E00B2A5051BE51B7002051A7518007519006D
:10026E00643C451A70220517E51770020516751ABB
:10027E0000751B00643C4516700E0515E5157002E1
:0B028E000514751600751700D0E03253
:030000000200B249
:0C00B200787FE4F6D8FD75814F0200F95C
:10000E00BB010689828A83E0225002E722BBFE02F0
:09001E00E32289828A83E4932223
:10002700C2D5EC30E709B2D5E4C39DFDE49CFCEEF4
:1000370030E715B2D5E4C39FFFE49EFE12005DC30F
:10004700E49DFDE49CFC800312005D30D507C3E40A
:060057009FFFE49EFE2263
:1000BE00020356E493A3F8E493A34003F68001F2FF
:1000CE0008DFF48029E493A3F85407240CC8C33343
:1000DE00C4540F4420C8834004F456800146F6DF12
:1000EE00E4800B0102040810204080900299E47E07
:1000FE00019360BCA3FF543F30E509541FFEE49307
:10010E00A360010ECF54C025E060A840B8E493A3CD
:10011E00FAE493A3F8E493A3C8C582C8CAC583CAF8
:10012E00F0A3C8C582C8CAC583CADFE9DEE780BEB0
:0102DC000021
:10005D00BC000BBE0029EF8DF084FFADF022E4CC87
:10006D00F875F008EF2FFFEE33FEEC33FCEE9DEC50
:10007D00984005FCEE9DFE0FD5F0E9E4CEFD22ED96
:10008D00F8F5F0EE8420D21CFEADF075F008EF2FE0
:10009D00FFED33FD4007985006D5F0F222C398FDD1
:0500AD000FD5F0EA226E
:00000001FF
